{"abi":[{"type":"function","name":"complex","inputs":[],"outputs":[],"stateMutability":"nonpayable"},{"type":"function","name":"number","inputs":[],"outputs":[{"name":"","type":"uint256","internalType":"uint256"}],"stateMutability":"view"},{"type":"function","name":"offset","inputs":[],"outputs":[{"name":"","type":"uint256","internalType":"uint256"}],"stateMutability":"view"},{"type":"function","name":"setNumber","inputs":[{"name":"newNumber","type":"uint256","internalType":"uint256"}],"outputs":[],"stateMutability":"nonpayable"}],"bytecode":{"object":"0x60808060405234601e57602a5f55600a60025561023990816100238239f35b5f80fdfe60806040526004361015610011575f80fd5b5f3560e01c80633fb5c1cb146101975780638381f58a1461017a578063a49e0ab1146100655763d555654414610045575f80fd5b34610061575f3660031901126100615760205f54604051908152f35b5f80fd5b34610061575f36600319011261006157600254801561006157600181019081811161010c57610093826101c3565b6040519290601f01601f1916830167ffffffffffffffff811184821017610166576040528083526100c6601f19916101c3565b013660208401375f5b818111156100e757506100e1916101db565b51600355005b6001811161012057806100fa81856101db565b525b5f19811461010c576001016100cf565b634e487b7160e01b5f52601160045260245ffd5b5f19810181811161010c5761013590846101db565b51600119820182811161010c5761014c90856101db565b51810180911161010c5761016082856101db565b526100fc565b634e487b7160e01b5f52604160045260245ffd5b34610061575f366003190112610061576020600154604051908152f35b34610061576020366003190112610061575f546004358082111561006157810390811161010c57600155005b67ffffffffffffffff81116101665760051b60200190565b80518210156101ef5760209160051b010190565b634e487b7160e01b5f52603260045260245ffdfea2646970667358221220461cf1b525b082db3f55c946201cb9c88984d752aec9c53f4bdd0eea9fecccf264736f6c634300081b0033","linkReferences":{}},"methodIdentifiers":{"complex()":"a49e0ab1","number()":"8381f58a","offset()":"d5556544","setNumber(uint256)":"3fb5c1cb"},"id":20}