{"abi":[{"type":"function","name":"complex","inputs":[],"outputs":[],"stateMutability":"nonpayable"},{"type":"function","name":"number","inputs":[],"outputs":[{"name":"","type":"uint256","internalType":"uint256"}],"stateMutability":"view"},{"type":"function","name":"offset","inputs":[],"outputs":[{"name":"","type":"uint256","internalType":"uint256"}],"stateMutability":"view"},{"type":"function","name":"setNumber","inputs":[{"name":"newNumber","type":"uint256","internalType":"uint256"}],"outputs":[],"stateMutability":"nonpayable"}],"bytecode":{"object":"0x60808060405234601957602a5f556102a8908161001e8239f35b5f80fdfe60806040526004361015610011575f80fd5b5f3560e01c80633fb5c1cb1461020c5780638381f58a146101ef578063a49e0ab1146100655763d555654414610045575f80fd5b34610061575f3660031901126100615760205f54604051908152f35b5f80fd5b34610061575f366003190112610061576002545f6002558061018f575b505f5b600a81111561013b575f5b600a81111561009b57005b600181116100d657806100cc816100b46100d194610246565b90919082549060031b91821b915f19901b1916179055565b610238565b610090565b5f198101818111610127576100ea90610246565b90549060031b1c9060011981018181116101275761010790610246565b90549060031b1c8201809211610127576100cc6100d1926100b483610246565b634e487b7160e01b5f52601160045260245ffd5b600254906801000000000000000082101561017b576101638260016101769401600255610246565b8154905f199060031b1b19169055610238565b610085565b634e487b7160e01b5f52604160045260245ffd5b60025f527f405787fa12a823e0f2b7631cc41b3ba8828b3321ca811111fa75cd3aa3bb5ace017f405787fa12a823e0f2b7631cc41b3ba8828b3321ca811111fa75cd3aa3bb5ace5b8181106101e45750610082565b5f81556001016101d7565b34610061575f366003190112610061576020600154604051908152f35b34610061576020366003190112610061575f546004358082111561006157810390811161012757600155005b5f1981146101275760010190565b60025481101561025e5760025f5260205f2001905f90565b634e487b7160e01b5f52603260045260245ffdfea2646970667358221220cbee3d969fdb4d821aaa92ed4063d74ab5dabafc158efb52d30cc8a68588bca964736f6c634300081b0033","linkReferences":{}},"methodIdentifiers":{"complex()":"a49e0ab1","number()":"8381f58a","offset()":"d5556544","setNumber(uint256)":"3fb5c1cb"},"id":20}