{"abi":[{"type":"function","name":"increment","inputs":[],"outputs":[],"stateMutability":"nonpayable"},{"type":"function","name":"number","inputs":[],"outputs":[{"name":"","type":"uint256","internalType":"uint256"}],"stateMutability":"view"},{"type":"function","name":"offset","inputs":[],"outputs":[{"name":"","type":"uint256","internalType":"uint256"}],"stateMutability":"view"},{"type":"function","name":"setNumber","inputs":[{"name":"newNumber","type":"uint256","internalType":"uint256"}],"outputs":[],"stateMutability":"nonpayable"}],"bytecode":{"object":"0x6080604052602a5f553480156012575f5ffd5b50610130806100205f395ff3fe6080604052348015600e575f5ffd5b50600436106044575f3560e01c80633fb5c1cb1460485780638381f58a146059578063d09de08a146073578063d5556544146079575b5f5ffd5b6057605336600460a5565b6080565b005b606160015481565b60405190815260200160405180910390f35b60576091565b60615f5481565b805f54608b919060cf565b60015550565b60018054905f609e8360e5565b9190505550565b5f6020828403121560b4575f5ffd5b5035919050565b634e487b7160e01b5f52601160045260245ffd5b8082018082111560df5760df60bb565b92915050565b5f6001820160f35760f360bb565b506001019056fea264697066735822122073dafc4d9d744c9e19c023be96374d537daadf2f9939deebd05918b81cbad6e764736f6c634300081b0033","linkReferences":{}},"methodIdentifiers":{"increment()":"d09de08a","number()":"8381f58a","offset()":"d5556544","setNumber(uint256)":"3fb5c1cb"},"id":0}