{"abi":[{"type":"constructor","inputs":[],"stateMutability":"nonpayable"},{"type":"function","name":"balances","inputs":[{"name":"","type":"address","internalType":"address"}],"outputs":[{"name":"","type":"uint256","internalType":"uint256"}],"stateMutability":"view"},{"type":"function","name":"transfer","inputs":[{"name":"recipient","type":"address","internalType":"address"},{"name":"amount","type":"uint256","internalType":"uint256"}],"outputs":[],"stateMutability":"nonpayable"}],"bytecode":{"object":"0x60808060405234602757335f525f6020526402540be40060405f2055610123908161002c8239f35b5f80fdfe60808060405260043610156011575f80fd5b5f3560e01c90816327e235e31460a9575063a9059cbb14602f575f80fd5b3460a557604036600319011260a557604460d8565b60243590335f525f6020528160405f20541060a557335f525f60205260405f208054908382039182116091575560018060a01b03165f525f60205260405f20805491820180921160915755005b634e487b7160e01b5f52601160045260245ffd5b5f80fd5b3460a557602036600319011260a5576020906001600160a01b0360c960d8565b165f525f825260405f20548152f35b600435906001600160a01b038216820360a55756fea264697066735822122027376bde8d49fbedcaef2de19008e25fd4fb5eec0b36fe065ed6df6167fe24cd64736f6c634300081b0033","linkReferences":{}},"methodIdentifiers":{"balances(address)":"27e235e3","transfer(address,uint256)":"a9059cbb"},"id":21}