{"abi":[{"type":"function","name":"call_counter","inputs":[{"name":"counterAddress","type":"address","internalType":"address"}],"outputs":[],"stateMutability":"nonpayable"},{"type":"function","name":"precompile","inputs":[{"name":"numberToHash","type":"uint256","internalType":"uint256"}],"outputs":[],"stateMutability":"nonpayable"}],"bytecode":{"object":"0x6080806040523460155761019c908161001a8239f35b5f80fdfe6080806040526004361015610012575f80fd5b5f3560e01c90816374e2da681461008e575063786b3f5d14610032575f80fd5b3461008a57602036600319011261008a575f8060405160208101906004358252602081526100616040826100f1565b519060025afa61006f610127565b901561008a5760208180518101031261008a57602001515f55005b5f80fd5b3461008a57602036600319011261008a57600435906001600160a01b038216820361008a575f918183602081940191633fb5c1cb60e01b835260146024820152602481526100dd6044826100f1565b51925af16100e9610127565b501561008a57005b90601f8019910116810190811067ffffffffffffffff82111761011357604052565b634e487b7160e01b5f52604160045260245ffd5b3d15610161573d9067ffffffffffffffff82116101135760405191610156601f8201601f1916602001846100f1565b82523d5f602084013e565b60609056fea2646970667358221220f79fd37ffdd1fcfbbaf749ee975aaf2a64ae314e3dab92f1f31cd321b580f46d64736f6c634300081b0033","linkReferences":{}},"methodIdentifiers":{"call_counter(address)":"74e2da68","precompile(uint256)":"786b3f5d"},"id":19}