{"abi":[{"type":"function","name":"call_counter","inputs":[{"name":"counterAddress","type":"address","internalType":"address"}],"outputs":[],"stateMutability":"nonpayable"},{"type":"function","name":"precompile","inputs":[{"name":"numberToHash","type":"uint256","internalType":"uint256"}],"outputs":[],"stateMutability":"nonpayable"}],"bytecode":{"object":"0x608080604052346015576101c0908161001a8239f35b5f80fdfe6080806040526004361015610012575f80fd5b5f905f3560e01c90816374e2da68146100e0575063786b3f5d14610034575f80fd5b346100dd5760203660031901126100dd5780806040516020810190600435825260208152610063604082610154565b519060025afa3d156100d5573d9067ffffffffffffffff82116100c15760405191610098601f8201601f191660200184610154565b82523d83602084013e5b156100bd576020818051810103126100bd5760200151815580f35b5080fd5b634e487b7160e01b83526041600452602483fd5b6060906100a2565b80fd5b905034610150576020366003190112610150576004356001600160a01b0381169081900361015057803b1561015057816024815f8094633fb5c1cb60e01b8352601460048401525af1801561014557610137575080f35b61014391505f90610154565b005b6040513d5f823e3d90fd5b5f80fd5b90601f8019910116810190811067ffffffffffffffff82111761017657604052565b634e487b7160e01b5f52604160045260245ffdfea26469706673582212209a7eb7c2a1bec9376768a7cc054141ed48783c240942973241caba13446c145a64736f6c634300081b0033","linkReferences":{}},"methodIdentifiers":{"call_counter(address)":"74e2da68","precompile(uint256)":"786b3f5d"},"id":19}